:020000040800F2
:1000000090640020850600088F0400089104000811
:1000100095040008990400089D04000800000000F1
:10002000000000000000000000000000290200089D
:10003000A1040008000000006D020008912B0008D8
:100040009F0600089F0600089F0600089F060008FC
:100050009F0600089F060008493B0008633B000814
:100060009F0600089F0600089F0600089F060008DC
:100070009F0600089F0600089F0600089F060008CC
:100080009F0600089F0600089F0600089F060008BC
:100090009F0600089F0600089F0600087F3B000897
:1000A0009F0600089F0600089F0600089F0600089C
:1000B0009F0600089F0600083D3D00089F060008B7
:1000C0009F0600089F0600089F0600089F0600087C
:1000D0009F060008F12E0008753D00082132000837
:1000E0009F0600089F0600088D0400089F06000870
:1000F0009F0600089F0600089F0600089F0600084C
:100100009F0600089F0600089F0600089F0600083B
:100110009F0600089F0600089F0600089F0600082B
:100120009F0600089F0600089F0600089F0600081B
:1001300000F002F800F068F80AA090E8000C824491
:100140008344AAF10107DA4501D100F05DF8AFF26E
:10015000090EBAE80F0013F0010F18BFFB1A43F0A5
:10016000010318477CA300009CA300000A444FF041
:10017000000C10F8013B13F0070408BF10F8014B06
:100180001D1108BF10F8015B641E05D010F8016B4B
:10019000641E01F8016BF9D113F0080F1EBF10F8AF
:1001A000014BAD1C0C1B09D16D1E58BF01F801CBD2
:1001B000FAD505E014F8016B01F8016B6D1EF9D555
:1001C0009142D6D37047000000230024002500266A
:1001D000103A28BF78C1FBD8520728BF30C148BFAA
:1001E0000B607047642907F0C587752907F0C2873F
:1001F000632908F06C81732908F071810020704731
:100200001FB51FBD10B510BD08F0FFF91146FFF76F
:10021000F7FF00F0EBF808F01DFA03B4FFF7F2FF68
:1002200003BC02F030FF0000224B19680868B0E8F8
:10023000F00F80F30988BFF36F8F4FF0000080F359
:1002400011884EF00D0E704700000000064800684F
:10025000006880F3088862B661B6BFF34F8FBFF3C2
:100260006F8F00DF00BF00BF08ED00E0EFF30980F3
:10027000BFF36F8F0F4B1A6820E9F00F106008B5BD
:100280004FF0500080F31188BFF34F8FBFF36F8F93
:1002900005F0CDFD4FF0000080F31188BDE8084067
:1002A00019680868B0E8F00F80F30988BFF36F8F12
:1002B000704700BF64000020EFF305807047000026
:1002C00010B502F00FFE02F07CFC03F0EDFA0820FE
:1002D00002F03AFE10BD1CB5044607F006F904F022
:1002E0003FF84B4908600020012103469622CDE9E2
:1002F000001048A1494805F0F3F94949086008464B
:10030000016848A007F0ECFE002001210346962278
:10031000CDE9001045A1464805F0E2F940490860E2
:10032000084601683FA007F0DBFE002004210346D9
:100330004FF4FA72CDE900103EA1404805F0D0F923
:10034000374908600846016836A007F0C9FE00205A
:10035000062103464FF4FA72CDE9001038A13C485B
:1003600005F0BEF92E490860084601682DA007F087
:10037000B7FE0020042103464FF4FA72CDE90010C5
:1003800034A1364805F0ACF92549086008460168F3
:1003900024A007F0A5FE0020042103464FF4FA72C2
:1003A000CDE900102EA1314805F09AF91C490860EA
:1003B000084601681BA007F093FE002004210346B5
:1003C0004FF4FA72CDE9001029A12B4805F088F905
:1003D000134908600846016812A007F081FE27480B
:1003E000006805F0CBF907F0A3F81CBD1CB5FFF7BA
:1003F00067FF2248012100238022CDE9001020A1BF
:10040000AFF22D1005F06CF905F093FE00201CBD35
:1004100004000020454E434F44455200114000085F
:1004200008000020256C640A000000004C454400D0
:10043000D140000842544C494E4B00000540000892
:100440004D4F544F52434F4E54524F4C00000000FA
:100450003D410008424C454C696E6B00613F00080D
:100460004F50454E4D564C494E4B000055430008E9
:100470004F4C454400000000694200080000002085
:1004800073746172745F7461736B000070477047BE
:1004900000BFFEE700BFFEE700BFFEE700BFFEE7CC
:1004A000704700000CB50020019000906C48006877
:1004B00040F480306A49086000BF6948006800F471
:1004C000003000900198401C0190009818B90198E4
:1004D000B0F5A06FF1D16248006800F4003010B1AF
:1004E0000120009001E0002000900098012843D1F5
:1004F0005C48006840F010005A49086008460068EF
:1005000020F0030008600846006840F00200086020
:100510005348406852494860084640684860084669
:10052000406840F4806048600846406820F47C10D1
:1005300048600846406840F4E81048600846006893
:1005400040F08070086000BF4548006800F000700F
:100550000028F9D04248406820F003004049486034
:100560000846406840F00200486000BF3C484068D0
:1005700000F00C000828F9D10CBD10B5FFF792FF70
:1005800010BD10B53648006840F0010034490860DD
:1005900008464068344908403149486008460068C8
:1005A000324908402E4908600846006820F480203F
:1005B00008600846406820F4FE0048604FF41F00C1
:1005C0008860FFF7DAFF4FF000602949086010BD2E
:1005D00010B5002100200022214B5B6803F00C01C4
:1005E00021B1042906D0082928D107E0214B224C4B
:1005F000236027E01F4B204C236023E0184B5B68EF
:1006000003F47010164B5B6803F48032022303EB93
:10061000904022B9194B4343174C23600DE0104B17
:100620005B6803F4003323B1144B4343124C236043
:1006300003E0104B4343104C236003E00D4B0E4C82
:10064000236000BF00BF064B5B68C3F303130C4C71
:10065000E15C094B1B68CB40074C236010BD0000D8
:1006600000100240002002400000FFF8FFFFF6FEED
:1006700008ED00E000127A000C00002000093D00A7
:10068000100000200948804709480047FEE7FEE7C0
:10069000FEE7FEE7FEE7FEE7FEE7FEE7FEE7FEE732
:1006A00004480549054A064B7047000083050008C9
:1006B00031010008905E00209064002090600020CE
:1006C0009060002031490143314A1160704770B594
:1006D000002100230F22C47804B32D4C246804F4B5
:1006E000E064C4F5E064210AC1F10403CA4044781F
:1006F00004FA03F18478144021430901254C06785B
:10070000A155047804F01F050124AC4005786D1153
:10071000AD0005F1E025C5F8004109E0047804F0DA
:100720001F050124AC401C4D0678761145F8264083
:1007300070BD1A4A0A400243154B1B1F1A607047CE
:1007400039B1134A121D12680243114B1B1D1A6066
:1007500006E00F4A121D126882430D4B1B1D1A60E2
:100760007047042808D14FF0E021096941F00401E5
:100770004FF0E022116107E04FF0E021096921F01C
:1007800004014FF0E0221161704700000000FA05FB
:100790000CED00E000E400E080E100E080FFFF1FDE
:1007A00010B50446CC48844208D10121042000F051
:1007B0002DFB0021042000F029FB46E0C7488442BD
:1007C00008D10121082000F021FB0021082000F0C1
:1007D0001DFB3AE0C248844208D10121102000F0FC
:1007E00015FB0021102000F011FB2EE0BD488442D3
:1007F00008D10121202000F009FB0021202000F079
:1008000005FB22E0B848844208D10121402000F0D5
:10081000FDFA0021402000F0F9FA16E0B3488442C6
:1008200008D10121802000F0F1FA0021802000F0A1
:10083000EDFA0AE0AE48844207D10121801500F0AC
:10084000E5FA0021A01500F0E1FA10BD10B5012174
:10085000084600F0DBFA0021012000F0D7FA10BDB5
:100860002DE9F04102460025002600200023002447
:10087000002791F803C00CF00F0591F803C00CF0AD
:10088000100CBCF1000F03D091F802C04CEA050532
:1008900091F800C0BCF1000F31D0146800202BE0AB
:1008A0004FF0010C0CFA00F3B1F800C00CEA03069B
:1008B0009E4220D183004FF00F0C0CFA03F7BC438B
:1008C00005FA03FC4CEA040491F803C0BCF1280FBC
:1008D00006D14FF0010C0CFA00FCC2F814C00AE07B
:1008E00091F803C0BCF1480F05D14FF0010C0CFA90
:1008F00000FCC2F810C0401C0828D1D31460B1F825
:1009000000C0BCF1FF0F34DD546800202EE000F180
:10091000080C4FF0010808FA0CF3B1F800C00CEA1B
:1009200003069E4221D183004FF00F0C0CFA03F70F
:10093000BC4305FA03FC4CEA040491F803C0BCF183
:10094000280F05D100F1080C08FA0CF8C2F8148041
:1009500091F803C0BCF1480F07D100F1080C4FF02B
:10096000010808FA0CF8C2F81080401C0828CED301
:100970005460BDE8F0814FF6FF7101800221817063
:100980000421C17070470246002093680B400BB1F0
:10099000012000E0002070470146886880B270475F
:1009A00002460020D3680B400BB1012000E000207C
:1009B00070470146C86880B2704701617047416165
:1009C00070470AB1016100E041617047C160704742
:1009D0004FF480320A438261816182618269826957
:1009E000704702460020434B18684FF6807318404A
:1009F00040EA021008433F4B186070473E49C86107
:100A00007047F0B50A46002300240021002500F0BD
:100A10000046B6F1004F02D1364EF16901E0354E85
:100A20007168C0F3034583B200F44016B6F5401F69
:100A300008D121F070612F4E766826F070662D4F38
:100A40007E6012E000F48016B6F5801F06D1032602
:100A500006FA05F4A14341F0706106E0460D360147
:100A600003FA06F6B14341F0706122B1460D36013A
:100A700003FA06F6314300F00046B6F1004F02D10A
:100A80001C4EF16101E01B4E7160F0BD30B50022DB
:100A90008B071C0F0F2303FA04F2164B08338C103C
:100AA00053F824309343134C08348D1044F8253008
:100AB00023468C1053F824308C07240F00FA04F4DA
:100AC00023430C4C08348D1044F8253030BD0A49BE
:100AD000DC3108607047000000080140000C014054
:100AE000001001400014014000180140001C0140AA
:100AF000002001400000014000002042DF48006863
:100B000040F00100DD49086008464068DC490840C3
:100B1000DA49486008460068DA490840D749086061
:100B20000846006820F4802008600846406820F4E9
:100B3000FE0048604FF41F0088607047CF49096885
:100B400021F48031CD4A11601146096821F48021D9
:100B50001160B0F5803F03D0B0F5802F0ED106E0D4
:100B6000C649096841F48031C44A116007E0C349AD
:100B7000096841F4A021C14A116000E000BF00BF34
:100B8000704710B501460022002300204A11012AB7
:100B900002D1BA4C236806E0022A02D1B74C236A7C
:100BA00001E0B64C636A01F01F02012494401C402E
:100BB0000CB1012000E0002010BD38B500200090ED
:100BC0000024002500BF3120FFF7DBFF0546009819
:100BD000401C00900098B0F5A06F01D0002DF2D01D
:100BE0003120FFF7CEFF08B1012400E000242046A9
:100BF00038BD01460020A14A106820F0F80040EA04
:100C0000C10010607047A04908607047024600208C
:100C10009A4B586820F47C1042EA01031843974B22
:100C20005860704798490866704701460020934A0B
:100C3000506820F003000843506070478F484068B8
:100C400000F00C007047014600208C4A506820F0EC
:100C5000F00008435060704701460020874A506802
:100C600020F4E06008435060704701460020834A4A
:100C7000506820F4605040EAC1005060704729B1CC
:100C80007E4A527A02437D4B5A7204E07B4A527A82
:100C900082437A4B5A7270477B49D831086070475B
:100CA00001460020754A506820F4404008435060D7
:100CB00070470021714A20321170704A82F820106A
:100CC000012802D004280AD104E001216B4A203215
:100CD000117005E00521694A2032117000E000BF63
:100CE00000BF70476949086070476449096A014359
:100CF000624A11627047654944390860704730B5EF
:100D000000210022002400235C4D6D6805F00C01D9
:100D100021B1042905D0082923D105E05C4D0560E7
:100D200022E05B4D05601FE0544D6D6805F47012C4
:100D3000524D6D6805F48034022505EB92421CB9D2
:100D4000544D554305600BE04C4D6D6805F400357E
:100D50001DB1504D5543056002E04D4D55430560B2
:100D600002E04B4D056000BF00BF444D6D6805F0CB
:100D7000F0010909484D6B5C0568DD4045603F4D59
:100D80006D6805F4E061090A434D6B5C4568DD4020
:100D900085603A4D6D6805F46051C90A3E4D6B5C43
:100DA0004568DD40C560354D6D6805F44041890BEF
:100DB0003A4D6B5CC568B5FBF3F5056130BD29B1F3
:100DC0002E4A526902432D4B5A6104E02B4A526964
:100DD00082432A4B5A61704729B1284A92690243DB
:100DE000264B9A6104E0254A92698243234B9A611B
:100DF000704729B1214AD2690243204BDA6104E0ED
:100E00001E4AD26982431D4BDA61704729B11B4AE1
:100E1000D2680243194BDA6004E0184AD268824370
:100E2000164BDA60704729B1144A12690243134B1A
:100E30001A6104E0114A12698243104B1A6170472B
:100E400012494039086070470F49C86470470B4920
:100E5000C87170470948406A40F08070074948628D
:100E6000704701460020054A92680A400AB10120F5
:100E700000E000207047014988727047001002406E
:100E80000000FFF8FFFFF6FE0000424280044242ED
:100E900000127A0000093D002000002030000020F0
:100EA000002044490860091D0860091D0860091DEB
:100EB000086041483F4914310860704700213D49AE
:100EC0008279002A3AD00A46126803689A430B4690
:100ED0001A600A1D126803689A430B1D1A60027992
:100EE00011440A6803681A430A60324A08321268D9
:100EF00003689A432F4B08331A601A1D126803685F
:100F00009A432C4B0C331A604279102A0ED11A1FC7
:100F1000126803681A43274B08331A601A1D1268B7
:100F200003681A43234B0C331A600DE021494279C0
:100F300011440A6803681A430A6005E00279114403
:100F40000A6803689A430A607047002101600171D2
:100F50000C214171002181717047164910310968D7
:100F60000143144A10321160704701460020114AB3
:100F7000143212680A400AB1012000E000207047D4
:100F80000C49143108607047014600200022094BCB
:100F90001B6803EA0102074B14331B680B4013B1B3
:100FA0000AB1012000E000207047024914310860B6
:100FB0007047000000040140FFFF0F0010B5044619
:100FC000FE48844208D10121C014FFF71FFF002111
:100FD000E014FFF71BFFC4E0B4F1804F08D10121FA
:100FE0000846FFF720FF00210120FFF71CFFB8E0B3
:100FF000F348844208D101210220FFF714FF0021A9
:101000000220FFF710FFACE0EE48844208D1012136
:101010000420FFF708FF00210420FFF704FFA0E0F1
:10102000E948844208D101210820FFF7FCFE002195
:101030000820FFF7F8FE94E0E448844208D101213B
:101040001020FFF7F0FE00211020FFF7ECFE88E0F3
:10105000DF48844208D101212020FFF7E4FE00216F
:101060002020FFF7E0FE7CE0DA48844208D101212D
:101070004014FFF7CBFE00216014FFF7C7FE70E0BD
:10108000D548844209D10121C804FFF7BFFE0021E1
:101090004FF40020FFF7BAFE63E0D048844209D144
:1010A00001210805FFF7B2FE00214FF48010FFF781
:1010B000ADFE56E0CA48844209D101214805FFF738
:1010C000A5FE00214FF40010FFF7A0FE49E0C5483F
:1010D000844208D101214020FFF7A5FE00214020D5
:1010E000FFF7A1FE3DE0C048844208D101218020E5
:1010F000FFF799FE00218020FFF795FE31E0BB4805
:10110000844208D101218015FFF78DFE0021A01532
:10111000FFF789FE25E0B648844209D10121080481
:10112000FFF774FE00214FF48030FFF76FFE18E0E8
:10113000B048844209D101214804FFF767FE00212D
:101140004FF40030FFF762FE0BE0AB48844208D159
:1011500001218804FFF75AFE00214FF48020FFF799
:1011600055FE10BD00220288944B98420ED0994B38
:1011700098420BD0B0F1804F08D0914B984205D0E7
:10118000904B984202D0904B984204D14FF68F7307
:101190001A404B881A438D4B984207D08C4B98428B
:1011A00004D04FF6FF431A40CB881A4302808B8845
:1011B00083850B880385814B98420BD0854B9842E1
:1011C00008D08B4B984205D08A4B984202D08A4B6C
:1011D000984201D10B7A038601238382704770B550
:1011E000002400220023058C4FF6FE76354005844E
:1011F000028C8388048B4FF68F752C40B51E2C40D3
:101200000D882C43751E2A400D892A434D882A4398
:101210006A4DA8420BD06F4DA84208D0744DA84229
:1012200005D0744DA84202D0734DA84213D14FF699
:10123000F7752A404D892A434FF6FB752A408D8861
:101240002A434FF6FF652B404FF6FF552B408D8903
:101250002B43CD892B4383800483CD8885860284EC
:1012600070BD70B5002400220023058C4FF6EF7688
:1012700035400584028C8388048B48F6FF752C402A
:101280004FF6FF452C400D884FF6FF7606EA052500
:101290002C434FF6DF752A400D8906EA05152A43CF
:1012A0004D8806EA05152A43444DA84202D0494D0F
:1012B000A8421DD14FF67F752A404D894FF6FF7623
:1012C00006EA05152A434FF6BF752A408D8806EABF
:1012D00005152A434FF6FF352B404FF2FF752B4083
:1012E0008D8906EA85052B43CD8906EA85052B43C2
:1012F00083800483CD880587028470BD70B5002487
:1013000000220023058C4FF6FF6635400584028CD1
:101310008388848B4FF68F752C404FF6FC752C40DC
:101320000D882C434FF6FF552A400D894FF6FF7666
:1013300006EA05252A434D8806EA05252A431F4D5E
:10134000A84202D0234DA8421DD14FF2FF752A407A
:101350004D894FF6FF7606EA05252A434FF6FF35FD
:101360002A408D8806EA05252A434EF6FF752B4054
:101370004DF6FF752B408D8906EA05152B43CD8967
:1013800006EA05152B4383808483CD8885870284F4
:1013900070BD70B5002200230024058C4EF6FF7648
:1013A00035400584038C8488828B48F6FF752A407B
:1013B0004FF6FF452A400D8820E00000002C014038
:1013C0000004004000080040000C004000100040F5
:1013D0000014004000340140004C01400050014026
:1013E0000054014000180040001C00400020004054
:1013F0000040014000440140004801404FF6FF76A4
:1014000006EA05252A434DF6FF752B400D8906EAAD
:1014100005352B434D8806EA05352B43FA4DA84286
:1014200002D0FA4DA84208D14BF6FF752C408D89A9
:101430004FF6FF7606EA85152C4384808283CD889B
:10144000A0F84050038470BD828B4FF2FF331A40E6
:101450008283828B4FF6FF7303EA01231A43828350
:101460007047F0B50C461546002200210026078C77
:101470004EF6FF7C07EA0C070784828B018C4FF63F
:10148000FF7707EA043640F6FF473A404FF6FF770A
:1014900007EA05273A434FF6FF7707EA03373A434F
:1014A000D94FB8420ED0D94FB8420BD0B0F1804FCF
:1014B00008D0D74FB84205D0D64FB84202D0D64F49
:1014C000B84206D14DF6FF77394046F4805739438C
:1014D00005E047F6FF57394044F48057394382838B
:1014E0000184F0BD828B4FF6F3731A408283828BA6
:1014F0000A4382837047F0B50C461546002200214E
:101500000026078C4FF6FF6C07EA0C070784828BD6
:10151000018C4FF6FF7707EA04264FF60C773A4026
:101520004FF6FF7707EA03172F433A43B64FB84207
:101530000ED0B64FB8420BD0B0F1804F08D0B44FA8
:10154000B84205D0B34FB84202D0B34FB84206D12B
:101550004FF6FF57394046F48077394305E04FF2A4
:10156000FF57394044F48077394382830184F0BDCA
:10157000028B4FF2FF331A400283028B4FF6FF7348
:1015800003EA01231A4302837047F0B50C4615465F
:10159000002200210026078C4FF6EF7C07EA0C079B
:1015A0000784028B018C4FF6FF7707EA041640F69A
:1015B000FF473A404FF6FF7707EA03373A434FF6C3
:1015C000FF7707EA05273A438F4FB8420ED08F4F77
:1015D000B8420BD0B0F1804F08D08D4FB84205D043
:1015E0008C4FB84202D08C4FB84206D14FF6DF770D
:1015F000394046F01007394305E04FF65F77394030
:1016000044F01007394302830184F0BD028B4FF68A
:10161000F3731A400283028B0A4302837047F0B5CA
:101620000C46154600220021068C4FF6FE773E4000
:101630000684028B018C4FF60C7632407E1C06EA43
:1016400003162E433243704EB0420ED06F4EB0425E
:101650000BD0B0F1804F08D06D4EB04205D06D4E2A
:10166000B04202D06C4EB04206D14FF6FD7631400A
:1016700044F00106314305E04FF6F576314044F081
:101680000106314302830184F0BD70B505460C4666
:101690005D4885420ED05D4885420BD0B5F1804F44
:1016A00008D05B48854205D05A48854202D05A4846
:1016B000854200D100E000BF208850B92389A2886C
:1016C00061882846FFF7ABFFE1882846FFF79EFFB9
:1016D00025E0208804280AD12389A2886188284629
:1016E000FFF753FFE1882846FFF742FF17E0208805
:1016F00008280AD12389A28861882846FFF7FBFEC3
:10170000E1882846FFF7EEFE09E02389A288618878
:101710002846FFF7A6FEE1882846FFF795FE70BD34
:101720002DE9F04105460C4600260127608808B9DE
:10173000022600E00026A088012801D1022700E04F
:1017400001272088A0B92389A28861882846FFF74D
:1017500066FFE1882846FFF759FF23893A4631465C
:101760002846FFF712FFE1882846FFF701FF13E044
:101770002389A28861882846FFF707FFE188284669
:10178000FFF7F6FE23893A4631462846FFF747FF22
:10179000E1882846FFF73AFFBDE8F0810A884B88C8
:1017A0001A438B881A43CB881A430B891A434B89F7
:1017B0001A438B891A43A0F8442070474FF6FF71F3
:1017C000818000210180C180418001727047002129
:1017D000018041808180C180018141818181C181FD
:1017E0007047002101804180012181800021C1805A
:1017F000018170470021018041808180C180018189
:101800004181818170470000002C0140003401407B
:101810000004004000080040000C004021B1028894
:1018200042F00102028004E002884FF6FE731A4083
:101830000280704731B1B0F8442042F40042A0F871
:10184000442005E0B0F84420C2F30E02A0F8442082
:1018500070471AB183890B43838102E083898B43EC
:10186000838170478182704741EA0203A0F84830C3
:1018700070471AB183890B43838102E083898B43CC
:101880008381704701894FF6F872114001817047DA
:101890000A46002101894FF68F73194011430181D7
:1018A000704730B504460D4629462046FFF7F0FF45
:1018B000208940F00700208130BD2DE9F041044629
:1018C0000D4616461F46602D06D13B460122314685
:1018D0002046FFF75AFE05E03B46012231462046EE
:1018E000FFF79DFE29462046FFF7D2FF208940F0F2
:1018F00007002081BDE8F08130B50C460021018948
:10190000C9B24FF6FF7505EA032515432543294360
:10191000018130BD2DE9F04105460E461746984637
:10192000002443463A4631462846FFF7E5FF2C8916
:101930004FF6F870044044F007044FF68F700440EF
:1019400044F070042C81BDE8F081F0B504460D46EA
:1019500016461F463B46324629462046FFF7CCFF37
:10196000208940F480402081F0BD0185828270474B
:101970000A46002101884FF68F73194011430180F8
:101980007047F0B50C4615461E4600210022002384
:101990000189028B038C4FF6F877394021434FF6CB
:1019A000FC473A4040F201173A434FF6DD773B409F
:1019B0004FF6FF7707EA06172F433B430181028367
:1019C0000384F0BD0A460021018B4FF68F73194046
:1019D0001143018370470A460021018B48F6FF73CB
:1019E00019404FF6FF7303EA02231943018370473E
:1019F0000A460021818B4FF68F7319401143818372
:101A000070470A460021818B48F6FF7319404FF654
:101A1000FF7303EA022319438183704721B10288CF
:101A200042F08002028004E002884FF67F731A4081
:101A30000280704721B1828842F00402828004E073
:101A400082884FF6FB731A408280704721B18288EA
:101A500042F00802828004E082884FF6F7731A4051
:101A60008280704721B1828842F00102828004E0C6
:101A700082884FF6FE731A40828070470A46002122
:101A8000018B4FF6F77319401143018370470A46E3
:101A90000021018B4FF2FF7319404FF6FF7303EAE9
:101AA00002231943018370470A460021818B4FF6B8
:101AB000F77319401143818370470A460021818BD7
:101AC0004FF2FF7319404FF6FF7303EA02231943E5
:101AD000818370470A460021018B4FF6FB73194042
:101AE0001143018370470A460021018B4FF6FF33F3
:101AF00019404FF6FF7303EA02231943018370472D
:101B00000A460021818B4FF6FB73194011438183F4
:101B100070470A460021818B4FF6FF3319404FF67C
:101B2000FF7303EA02231943818370470A460021A9
:101B3000018B4FF67F7319401143018370470A46AA
:101B40000021018BC1F30E014FF6FF7303EA02235C
:101B50001943018370470A460021818B4FF67F733A
:101B600019401143818370470A460021818BC1F3DC
:101B70000E014FF6FF7303EA022319438183704776
:101B80000A460021018C4FF6FD7319401143018470
:101B900070470A460021018C4FF6F7731940114334
:101BA000018470470A460021018C4FF6DF7319400B
:101BB0004FF6FF7303EA02131943018470470A4684
:101BC0000021018C4FF67F7319404FF6FF7303EA33
:101BD00002131943018470470A460021018C4FF615
:101BE000FF5319404FF6FF7303EA022319430184A0
:101BF00070470A460021018C4FF2FF7319404FF6DF
:101C0000FF7303EA02231943018470470A46002147
:101C1000018C4DF6FF7319404FF6FF7303EA023350
:101C200019430184704730B5002301248C40A3B2CE
:101C3000048C9C430484048C02FA01F5ADB22C435D
:101C4000048430BD30B5002304248C40A3B2048C3E
:101C50009C430484048C02FA01F5ADB22C43048445
:101C600030BD70B503460020002418461830012509
:101C70008D40ACB21D8CA5431D8409B1082909D142
:101C800000EB6100056825F07005056005681543E7
:101C900005600EE00D1FC5F34E052844056825F4C8
:101CA000E045056005684FF6FF7606EA02263543F3
:101CB000056070BD21B1028842F00202028004E09A
:101CC00002884FF6FD731A400280704721B10288E6
:101CD00042F00402028004E002884FF6FB731A40CF
:101CE0000280704721B1828842F08002828004E045
:101CF00082884FF67F731A408280704702884FF6C1
:101D0000F7731A40028002880A4302807047828873
:101D10004FF68F731A40828082880A438280704710
:101D200002894FF6F8731A40028102890A43028140
:101D3000704702894FF67F731A40028102890A4375
:101D40000281704781847047818570478186704722
:101D50000187704781877047A0F84010704702885C
:101D60004FF6FF431A40028002880A430280704700
:101D70000146888E70470146088F70470146888F5C
:101D800070470146B1F8400070470146888C7047A3
:101D90000146088D704702460020138A0B400BB1A4
:101DA000012000E000207047CA430282704730B52E
:101DB0000246002000230024158A05EA01039589C4
:101DC00005EA010413B10CB1012000E0002030BD90
:101DD000CA4302827047000001684FF6FE7211404C
:101DE00001600021016041608160C1608D498842CD
:101DF00008D18C490839496841F00F01894A083AED
:101E000051608AE087491431884208D185490839F0
:101E1000496841F0F001834A083A51607DE0814908
:101E20002831884208D17F490839496841F47061F6
:101E30007C4A083A516070E07A493C31884208D1C6
:101E400078490839496841F47041764A083A516046
:101E500063E074495031884208D1724908394968B1
:101E600041F470216F4A083A516056E06D4964317F
:101E7000884208D16B490839496841F47001694AC0
:101E8000083A516049E067497831884208D165498C
:101E90000839496841F07061624A083A51603CE093
:101EA0006149884206D1011F096841F00F01021FF4
:101EB000116032E05C491431884208D15A49091F47
:101EC000096841F0F001584A121F116025E0564997
:101ED0002831884208D15449091F096841F47061CA
:101EE000514A121F116018E04F493C31884208D115
:101EF0004D49091F096841F470414B4A121F116096
:101F00000BE049495031884207D14749091F096808
:101F100041F47021444A121F1160704710B500222D
:101F2000026847F6F0739A430C6A8B6823430C6986
:101F300023434C6923438C692343CC6923434C6A74
:101F400023438C6A23431A430260CB6843600B68C7
:101F500083604B68C36010BD0021016041608160F7
:101F6000C160016141618161C1610162416281625F
:101F7000704721B1026842F00102026004E0026889
:101F80004FF6FE731A40026070471AB103680B43A4
:101F9000036002E003688B43036070474160704751
:101FA0000146486880B2704701460020002201F0D7
:101FB00080531BB11C4B083B1A6802E0194B083BCD
:101FC0001A6802EA01030BB1012000E0002070470B
:101FD00000F0805119B11449091F086002E011494D
:101FE00008394860704701460020002201F0805304
:101FF0001BB10D4B083B1A6802E00A4B083B1A68FC
:1020000002EA01030BB1012000E00020704700F05C
:10201000805119B10449091F086002E001490839DB
:1020200048607047080002400804024010B50446AA
:10203000FB48844209D101218803FEF7E7FE002115
:102040004FF48040FEF7E2FE32E0F648844209D1C8
:1020500001214804FEF7E7FE00214FF40030FEF7AF
:10206000E2FE25E0F048844209D101218804FEF710
:10207000DAFE00214FF48020FEF7D5FE18E0EB4891
:10208000844209D10121C804FEF7CDFE00214FF49E
:102090000020FEF7C8FE0BE0E548844208D101218C
:1020A0000805FEF7C0FE00214FF48010FEF7BBFECE
:1020B00010BD2DE9F04786B005460E460024A24625
:1020C00000BFA1460027B08900B100BF2F462C8A6F
:1020D0004CF6FF700440F08804432C82AC894EF625
:1020E000F3100440B08831890843718908430443E0
:1020F000AC81AC8A4FF6FF400440B0890443AC8207
:1021000001A8FEF7FCFDC648874202D1DDF810A009
:1021100001E0DDF80CA0A88900F4004040B10AEB12
:10212000CA0000EB0A1031684900B0FBF1F807E083
:102130000AEBCA0000EB0A1031688900B0FBF1F825
:102140006420B8FBF0F004012009642101FB108930
:10215000A88900F4004040B1322000EBC900B0FB78
:10216000F1F000F00700044308E0322000EB091012
:102170006421B0FBF1F000F00F0004432C8106B0A5
:10218000BDE8F0874FF41651016000218180C180C5
:1021900001810C21418100218181704710B50246E7
:1021A0000020108A4FF2FF0318400B884C8823430D
:1021B0008C882343CC8823431843108210BD002110
:1021C000018041808180C180704721B1828942F4C1
:1021D0000052828104E082894DF6FF731A408281A9
:1021E0007047F0B50346002400260025002040F685
:1021F0006A17B94200D100BF1846C1F3421401F07A
:102200001F06012707FA06F5012C01D10C3004E066
:10221000022C01D1103000E014301AB107682F43AE
:10222000076002E00768AF430760F0BD1AB1838A18
:102230000B43838202E0838A8B4383827047028A46
:102240004FF6F0731A400282028A0A4302827047F4
:1022500082894FF2FF731A40828182890A43828108
:10226000704721B1828942F00202828104E08289B2
:102270004FF6FD731A4082817047028A4FF6DF7372
:102280001A400282028A0A430282704721B1028AFE
:1022900042F48042028204E0028A4BF6FF731A4045
:1022A00002827047C1F30802828070470146888825
:1022B000C0F308007047818941F0010181817047B6
:1022C000028BD2B20283028B42EA01220283704760
:1022D000028B02F47F420283028B0A43028370471F
:1022E00021B1828A42F02002828204E0828A4FF683
:1022F000DF731A408282704721B1828A42F0100255
:10230000828204E0828A4FF6EF731A40828270471D
:1023100021B1828A42F00802828204E0828A4FF66A
:10232000F7731A408282704721B1828942F40042D9
:10233000828103E08289C2F30E028281704721B15B
:10234000828A42F40062828204E0828A4FF2FF7342
:102350001A4082827047828A4FF6FB731A4082824B
:10236000828A0A438282704721B1828A42F0020245
:10237000828204E0828A4FF6FD731A40828270479F
:1023800002460020B1F5007F00D100BF13880B404A
:102390000BB1012000E00020704701F40072B2F59B
:1023A000007F00D100BFCA430280704770B502466B
:1023B000002400230025002040F66A16B14200D117
:1023C00000BFC1F3421501F01F03012606FA03F313
:1023D000012D02D19689334006E0022D02D1168AE2
:1023E000334001E0968A33400C12012606FA04F4C9
:1023F0001688344013B10CB1012000E0002070BDFC
:1024000010B50022002340F66A14A14200D100BF9B
:102410000A1201249440A3B2DC43048010BD0000E2
:10242000003801400044004000480040004C00409B
:102430000050004010B50446BE48844208D1012136
:102440008014FEF7E3FC0021A014FEF7DFFC16E089
:10245000B948844208D101210014FEF7E4FC0021B0
:102460002014FEF7E0FC0AE0B448844207D10121C1
:10247000C013FEF7D8FC0021E013FEF7D4FC10BD1A
:1024800010B50022028802F441520B884C88234385
:102490008C882343CC8823430C8923434C892343D2
:1024A0008C892343CC8923431A430280838B4FF2C8
:1024B000FF74234083830B8A038210BD2DE9F04F04
:1024C00085B005460C464FF0000902274FF0000882
:1024D0004FF0010B0026B246A88B4FF24001084096
:1024E000A88302202884B5F81C90A068022801D196
:1024F00000BF38E0A08810B94FF0010B01E04FF0A9
:10250000020B8D48854200D100E000BF6846FEF70F
:10251000F6FBDDF800A0E088B0F5007F0AD14FEAB5
:102520001A2000EB80004000A168B0FBF1F0401DD4
:1025300086B20BE04FEA4B10BAFBF0F000EB8000E4
:102540004000A168B0FBF1F0401D86B20A20B6FB46
:10255000F0F606F00108A6EB0800C0F34F074FF6AF
:10256000FF7000EA0828022F01DBFF2F02DD02279F
:102570004FF00008E08840EA080038432884A0882B
:10258000A1890843618808432188084340F400601A
:1025900040EA0909A5F81C9005B0BDE8F08F0021BC
:1025A000018041808180C180018141818181C1811F
:1025B0000721018270470021018041808180C18014
:1025C0000221816000218181704721B1028842F09F
:1025D0004002028004E002884FF6BF731A40028076
:1025E000704721B1828B42F48062828304E0828B47
:1025F0004FF6FF331A408283704730B50024002322
:102600000C110125A540ABB21AB185881D43858008
:1026100002E085889D43858030BD1AB183880B43D5
:10262000838002E083888B43838070478181704779
:102630000146888970474FF6FF62914204D00288B4
:1026400042F48072028004E002884FF6FF631A4071
:102650000280704721B1828842F00402828004E047
:1026600082884FF6FB731A408280704702884FF2CF
:10267000FF731A40028002880A4302807047018873
:1026800041F480510180704721B1028842F4005228
:10269000028004E002884DF6FF731A400280704702
:1026A00002460020012901D0108B00E0908A70477B
:1026B0000146088A7047B1F5804F04D1028842F480
:1026C0008042028004E002884BF6FF731A400280C9
:1026D00070470246002013890B400BB1012000E037
:1026E00000207047CA4302817047F0B502460020BF
:1026F00000240023002501F00F070126BE40B4B2DC
:102700000B1101269E40B3B2968806EA030516898E
:10271000264016B10DB1012000E00020F0BD10B53B
:10272000002201F00F040123A3409AB2D343038196
:1027300010BD00000030014000380040003C004067
:1027400010B50446FA48844208D101214015FEF72D
:102750005DFB00216015FEF759FB17E0F548844248
:1027600008D101210015FEF751FB00212015FEF7CD
:102770004DFB0BE0F048844208D10121C803FEF76D
:1027800045FB00214FF40040FEF740FB10BD30B583
:102790000246002000235068E84C20400D790C6868
:1027A00044EA0524204350609068E54C2040D1E97C
:1027B00002542C434D7944EA450420439060D06A8A
:1027C00020F470000C7C641EE4B2234340EA035002
:1027D000D06230BD00210160017141718160C16032
:1027E00001210174704721B1826842F001028260C8
:1027F00003E0826822F001028260704721B18268A2
:1028000042F48072826003E0826822F48072826007
:10281000704710B50023CBB21AB144681C43446022
:1028200002E044689C43446010BD816841F00801A7
:1028300081607047014600208A6802F008020AB1F0
:10284000012000E000207047816841F004018160B0
:102850007047014600208A6802F004020AB1012094
:1028600000E00020704721B1826842F4A00282603B
:1028700003E0826822F4A0028260704701460020D3
:102880008A6802F480020AB1012000E0002070474B
:1028900010B50A4600210023416821F46041531E0F
:1028A00041EA4331416010BD21B1426842F4006207
:1028B000426003E0426822F4006242607047F0B573
:1028C00004460D4600200021092D11DDE068A5F128
:1028D0000A0606EB4607072606FA07F18843A5F124
:1028E0000A0606EB460603FA06F10843E0600CE030
:1028F000206905EB4507072606FA07F1884305EB33
:10290000450603FA06F108432061072A0FDA606BD7
:10291000561E06EB86071F2606FA07F18843561E49
:1029200006EB860605FA06F10843606322E00D2AED
:102930000FDA206BD61F06EB86071F2606FA07F173
:102940008843D61F06EB860605FA06F10843206386
:1029500010E0E06AA2F10D0606EB86071F2606FAD4
:1029600007F18843A2F10D0606EB860605FA06F18B
:102970000843E062F0BD21B1826842F480128260B7
:1029800003E0826822F48012826070470146C86CBE
:1029900080B2704766484C300068704721B1426889
:1029A00042F48062426003E0426822F48062426046
:1029B000704721B1426842F48052426003E04268AD
:1029C00022F48052426070470A460021816821F457
:1029D000E04111438160704721B1826842F40042B6
:1029E000826003E0826822F400428260704721B175
:1029F000826842F40212826003E0826822F40212CA
:102A000082607047014600208A6802F400120AB111
:102A1000012000E000207047F0B504461546002074
:102A200000220026092911DDE068A1F10A0707EB61
:102A3000470C072707FA0CF29043A1F10A0707EBAE
:102A4000470703FA07F21043E0600CE0206901EB4E
:102A5000410C072707FA0CF2904301EB410703FAF8
:102A600007F210432061A06BC0F30156EF1C06F182
:102A7000010CA7EB0C0707EB870C1F2707FA0CF2DA
:102A80009043EF1C06F1010CA7EB0C0707EB87073F
:102A900001FA07F21043A063F0BD10B50A46002109
:102AA0000023816B21F44011531E41EA03518163DD
:102AB00010BD08B5002300930090009B0B440093C9
:102AC000009B1A6008BD08B50246002000900092E5
:102AD00001F12800009B184400900098006880B223
:102AE00008BD0A4600214168164B19401143416058
:102AF00070474162826270470A460021416821F0B6
:102B00001F0111434160704740B10949083109680C
:102B100041F40001064A0832116007E00449083117
:102B2000096821F40001024A083211607047000070
:102B30000024014000280140003C0140FFFEF0FF5E
:102B4000FDF7F1FFFFFD3FFF0246002013680B4039
:102B50000BB1012000E000207047CA4302607047BB
:102B600070B502460020002300240B125568CEB237
:102B700005EA060415681D4015B10CB1012000E0FE
:102B8000002070BD00220A12D3430360704700008A
:102B900010B503F091FD012802D004F0E1FC04E03F
:102BA00040480068401C3F49086010BD10B503F064
:102BB00083FD012802D003F004FB10BD39480068F2
:102BC000FBE710B50420FDF7CCFD37480068374916
:102BD000B0FBF1F036490870334800683349B0FB68
:102BE000F1F44FF47A7044430120324908804FF0E9
:102BF000E020006940F002004FF0E0210861084643
:102C00004461006940F00100086110BD70B50346E1
:102C100000224FF0E0267569254E367803FB06F456
:102C20004FF0E026B16910E04FF0E026B06988422D
:102C30000BD0884202D20E1A324402E02E1A0E4401
:102C400032440146A24200D300E0EDE700BF70BD70
:102C500070B5044603F030FD012810D015480088F7
:102C6000844206D313480088B4FBF0F5284602F0EE
:102C7000B5FF10480088B4FBF0F100FB11444FF49D
:102C80007A7104FB01F0FFF7C1FF70BD30B5044657
:102C9000002504E04FF47A70FFF7B8FF6D1CA542E1
:102CA000F8D330BD340000200C00002040420F005B
:102CB000380000203A00002070B50546002405E0E9
:102CC000601CC4B2C82C01DD002070BD0221834805
:102CD000FFF7FFFC0028F3D029468048FFF7A6FC49
:102CE000002405E0601CC4B2C82C01DD0020ECE724
:102CF00001217A48FFF7EDFC0028F3D07748FFF771
:102D000097FCC0B2E1E700B587B0012141F20400B1
:102D1000FEF762F8A020ADF8180018208DF81B000F
:102D200003208DF81A0006A96D48FDF799FDA02132
:102D30006B48FDF742FE4FF44040ADF804004FF4FD
:102D40008270ADF806000020ADF808000220ADF852
:102D50000A000020ADF80C004FF40070ADF80E0032
:102D60001020ADF810000020ADF812000720ADF8DB
:102D7000140001A95948FFF783FB01215748FFF7C9
:102D800024FCFF20FFF798FF07B000BD10B50446F4
:102D9000524800884FF6C7710840504908800846DD
:102DA00000882043088001214C48FFF70EFC10BD2D
:102DB0002DE9F04705460E4617469846DDF8209067
:102DC0000024C8F8149045F08000FFF775FF00BF9D
:102DD00008E004F181012943C8B2FFF76DFF3855BF
:102DE000601CC4B2701EA042F3DCFF20FFF764FF3A
:102DF000711E7854C8F810900020BDE8F0872DE9C6
:102E0000F04107460E4614461D4665613846FFF7F9
:102E100053FF3046FFF750FF25610020BDE8F081E9
:102E20002DE9F04106460C4615460027656146F03F
:102E30008000FFF741FFFF20FFF73EFF07462561B7
:102E40003846BDE8F081F8B505460C461646012126
:102E50003046FDF7C1FF10208DF80300ADF80040AB
:102E600003208DF8020069462846FDF7F9FC2C6125
:102E70000120FFF7EDFEF8BD70B504460D4604F0E5
:102E80007F00FFF719FF2846FFF716FF002070BDEF
:102E900010B5044644F08000FFF70EFFFF20FFF757
:102EA0000BFF10BD2DE9F04104460D4616462F4696
:102EB00044F08000FFF700FF4FF0000808E0FF201B
:102EC000FFF7FAFE07F8010B08F101001FFA80F87E
:102ED000B045F4DB0020BDE8F08100000030014087
:102EE0000008014010B54FF44070FDF7EBFB10BD3A
:102EF00010B540F224416C48FFF758FA98B16A487F
:102F00000088C4B26848001D0088C4B200BF002118
:102F10006648FFF72EF81E2064495839C86501211C
:102F20006248FFF726F810BD10B5044600215F483F
:102F30001438FFF71EF85D485838846401215B4857
:102F40001438FFF716F810BD10B592B004460121F1
:102F500044F20400FDF740FF01210846FDF72FFF72
:102F60005148FFF763F84FF40070ADF844000320B8
:102F70008DF8460018208DF8470011A94C48FDF740
:102F80006FFC4FF48060ADF8440004208DF84700DA
:102F900011A94748FDF764FC25208DF830008DF815
:102FA000314000208DF8320001208DF833000CA84C
:102FB000FDF78DFB4FF4E1300D900020ADF83800A7
:102FC000ADF83A00ADF83C00ADF840000C20ADF88B
:102FD0003E000DA93448FFF76CF8012240F224416D
:102FE0003148FFF7FEF8012240212F48FFF71EF974
:102FF00001212D48FFF7E9F82C48FEF7EDFE2A489D
:10300000001D01902B480290002003901E20049088
:1030100000200590802006900020079008900990DD
:103020004FF480500A9000200B9001A91F48FEF732
:1030300075FF01211D48FEF79CFF1C481438FEF760
:10304000CBFE1948001D01901B48029010200390F0
:103050000120049000200590802006900020079019
:10306000089020200990C0010A9000200B9001A92F
:103070000E481438FEF752FF012280210A48FFF75C
:10308000D5F812B010BD014600BF0020704700BF48
:10309000054A128802F04002002AF9D0C2B2024B5F
:1030A0001B1D1A8070470000003801405800024084
:1030B00000080140E80100200602002010B592B08F
:1030C000044601210820FDF787FE01218804FDF751
:1030D00090FE01210846FDF772FE6848FEF7A6FF44
:1030E0004FF48060ADF8440003208DF846001820AE
:1030F0008DF8470011A96248FDF7B2FB4FF400605C
:10310000ADF8440004208DF8470011A95C48FDF794
:10311000A7FB27208DF830008DF8314000208DF876
:10312000320001208DF833000CA8FDF7D0FA4FF4DF
:1031300096400D900020ADF83800ADF83A00ADF89B
:103140003C00ADF840000C20ADF83E000DA94B4806
:10315000FEF7AFFF012240F224414848FFF741F853
:10316000012240214548FFF761F801214348FFF75C
:103170002CF84448FEF730FE4048001D01904248BC
:1031800002900020039009200490002005908020E8
:10319000069000200790089009904FF480500A9004
:1031A00000200B9001A93748FEF7B8FE01213548F1
:1031B000FEF7DFFE33481438FEF70EFE2F48001DE1
:1031C00001903248029010200390092004900020C2
:1031D00005908020069000200790089009904FF4F9
:1031E00080500A9000200B9001A926481438FEF761
:1031F00095FE012280212148FFF718F812B010BD7A
:1032000010B5044600211F481438FEF7B2FE1D48D1
:103210003038046201211B481438FEF7AAFE10BDA5
:1032200038B540F224411548FFF7C0F828B31348D9
:103230000088C5B21148001D0088C5B200BF6A46AB
:1032400004211348006801F09DFA04464CB100982F
:1032500038B14FF080500F490860BFF34F8FBFF374
:103260006F8F00210748FEF784FE09200549303999
:10327000486301210348FEF77CFE38BD004800404A
:10328000000C014030000240240200202D020020EA
:103290000400002004ED00E008B501211820FDF72E
:1032A0009BFDA020ADF8000010208DF80300032046
:1032B0008DF802006946FE48FDF7D2FAA021FC48CD
:1032C000FDF77BFB4FF48050ADF800006946F948EC
:1032D000FDF7C6FA4FF48051F648FDF76EFBFFF795
:1032E00012FD2020FFF752FD08BD70B505460C46C3
:1032F000F14804600020F149C1F8B0012846FFF709
:10330000DBFC0120EE490860EE49C1F8940170BD74
:1033100070B500241CE004F1B001C8B20021FFF731
:10332000E4FF00210846FFF7E0FF00211020FFF72F
:10333000DCFF002508E0E44901EBC501085D01213F
:10334000FFF7D3FF681CC5B2802DF4DB601CC4B24C
:10335000082CE0DB70BD10B500218D20FFF7C5FF04
:1033600000211420FFF7C1FF0021AF20FFF7BDFFB0
:1033700010BD10B500218D20FFF7B7FF00211020F0
:10338000FFF7B3FF0021AE20FFF7AFFF10BD70B510
:1033900000240CE0002506E00020CB4901EBC5012C
:1033A0000855681CC5B2802DF6DB601CC4B2082C21
:1033B000F0DBFFF7ADFF70BDF0B5144600267F28A7
:1033C00001DC3F2900DDF0BD0B46CF1701EB57773D
:1033D000FF10C7F10707FAB2CF1701EB5777FF10BD
:1033E000A1EBC707FDB2C5F107070123BB40DEB261
:1033F0004CB1B54B03EBC0039B5C3343B24F07EBBF
:10340000C007BB5408E0B04B03EBC0039B5CB34365
:10341000AD4F07EBC007BB5400BFD4E72DE9F04721
:1034200006460F4690469946DDF820A034460CE04B
:103430003D4606E0524629462046FFF7BDFF681C80
:10344000C5B24D45F6DD601CC4B24445F0DDFFF762
:103450005FFFBDE8F0872DE9F84F80460F4616461E
:103460001C46BA462046E31704EB5373DB10214693
:103470004FEAE47C04EB5C7C4FEAEC0CA4EBCC0C54
:10348000BCF1000F02D04FF0010C01E04FF0000C36
:103490006344224604EBD27C4FEA6C0C03FB0CF332
:1034A00003F0FF0BA6F12000C6B200254EE00C2C65
:1034B00007D106EB4600854901EB8000405D009096
:1034C00013E0102C05D1824800EB0610405D0090FF
:1034D0000BE0182C07D106EBC6007E4901EB8000FB
:1034E000405D009001E0BDE8F88F4FF0000927E053
:1034F000009800F0800028B1394640460A9AFFF74C
:103500005BFF09E00A9808B9012000E000200246AC
:1035100039464046FFF750FF00984006000E0090E5
:10352000781CC7B2A7EB0A00A04205D1574608F1A4
:10353000010000F0FF0806E009F1010000F0FF09BA
:10354000B9F1080FD4DB00BF681CC5B25D45AEDB26
:1035500000BFC8E710B50246012000E050430B1E33
:10356000A1F10104E1B2F9D110BD2DE9FF4F81B005
:10357000074691461E460E9D4FF0000A002439E092
:10358000301B401EC1B20A20FFF7E4FFB9FBF0F088
:103590000A21B0FBF1F201FB1208BAF1000F16D1BB
:1035A000701EA04213DDB8F1000F0ED10120AB4612
:1035B00005EBDB71491001FB04710090C8B22B468A
:1035C00020220299FFF747FF12E04FF0010A012085
:1035D000AB4605EBDB71491001FB04710090C8B2EA
:1035E00008F13001CAB22B460299FFF734FF00BF41
:1035F000601CC4B2B442C3DB05B0BDE8F08FF8B5BF
:1036000006460F4615461C4621E004EBD4714910CE
:10361000C1F18001B14202DA00263819C7B2C4F103
:103620004000B84204DA002006460746FFF7AFFE26
:10363000012000902A78234639463046FFF70BFFD9
:10364000204604EBD07106EB6101CEB26D1C2878E8
:103650007E2802DC28782028D7DAF8BD10B5FFF7DD
:103660001BFE0120164908601649C1F8940100208C
:103670001149083108606420FFF7EAFA0120114976
:10368000C1F89C010021AE20FFF72FFE0021D520BC
:10369000FFF72BFE00215020FFF727FE0021A82076
:1036A000FFF723FE00213F20FFF71FFE002113E05C
:1036B000000C014000100140948121420000224290
:1036C000B001224200802142360200201E8D0008F7
:1036D0009291000882970008D320FFF706FE002190
:1036E0000846FFF702FE00214020FFF7FEFD002103
:1036F0008D20FFF7FAFD00211420FFF7F6FD0021D1
:103700002020FFF7F2FD00210220FFF7EEFD00214F
:10371000A120FFF7EAFD0021C020FFF7E6FD002110
:10372000DA20FFF7E2FD00211220FFF7DEFD002185
:103730008120FFF7DAFD0021EF20FFF7D6FD002101
:10374000D920FFF7D2FD0021F120FFF7CEFD0021A7
:10375000DB20FFF7CAFD00213020FFF7C6FD002166
:10376000A420FFF7C2FD0021A620FFF7BEFD002127
:10377000AF20FFF7BAFDFFF70AFE10BD08B5FFF74F
:103780006DFF182323A200210846FFF738FF1023FE
:1037900022A218210020FFF732FF0C2323A22821A8
:1037A0000020FFF72CFF0C2324A234210020FFF778
:1037B00026FF0C2323A234214020FFF720FFFFF730
:1037C000A7FD20202149087022E001200C23009051
:1037D0001E48027834212420FFF73DFE0C200323ED
:1037E00000901A48027834215E20FFF7BEFEFFF7F2
:1037F0008FFD16480078401C144908700846007870
:103800007E2801DD202008704FF4FA70FFF720FABF
:10381000DBE7000058584C4048495400302E3936F8
:1038200027204F4C454420544553540054494D459E
:1038300020323031392F352F3400000041534349B5
:10384000493A0000434F44453A0000004000002040
:1038500070B5002400204F49086000BF0BE04E48BF
:1038600030F81400C0F30B004A490968084449497C
:103870000860601CC4B20A2CF1DB464800680A21CB
:10388000B0FBF1F0434908600846006805F08CF889
:103890000646424905F0D0F805464FF08B4104F04A
:1038A00055FF3F49086070BD00B591B00121480245
:1038B000FDF792FA4FF44040FDF7F2F90121084676
:1038C000FDF77DFA01211020FDF786FA0120ADF801
:1038D0002C0000208DF82F000BA93248FCF7C0FF08
:1038E00001208DF8350000200F904FF460200E90DD
:1038F00000200C9001208DF840008DF834000CA9B8
:103900002948FEF744FF07230B220A212648FEF729
:10391000D6FF2648FEF760FA23484C3000901E4838
:103920000190002002900A20039000200A90049049
:10393000802005904000069080000790202008908D
:10394000C001099069461948FEF7E8FA01211748B5
:10395000FEF70FFB01211448FEF745FF0121124835
:10396000FEF74CFF1048FEF760FF00BF0E48FEF761
:1039700061FF0028FAD10C48FEF766FF00BF0A4835
:10398000FEF767FF0028FAD101210748FEF76BFF19
:1039900011B000BD4800002036060020E17A5440F6
:1039A00044000020001001400024014008000240B3
:1039B00000B589B001214803FDF70EFA012110205E
:1039C000FDF70AFA4FF47070ADF8200018208DF85A
:1039D000230003208DF8220008A92748FCF740FFA8
:1039E00040F2E730ADF818004720ADF81400002091
:1039F000ADF81A00ADF8160005A92048FDF7B2FB96
:103A00006020ADF804000120ADF806000020ADF8FC
:103A10000800ADF80A00ADF80C0001A91748FDF741
:103A2000DEFB08211548FEF729F801A91348FDF728
:103A300018FC08211148FEF72AF801A90F48FDF7E4
:103A40005DFC08210D48FEF72FF801A90B48FDF792
:103A5000A0FC08210948FEF730F801210748FDF7CE
:103A6000E9FE01210548FDF7D9FF01210348FDF7D3
:103A7000D5FE09B000BD0000001001400034014037
:103A800000B589B0012140F60800FDF7A5F94FF413
:103A90006040ADF8200018208DF8230003208DF839
:103AA000220008A92648FCF7DBFE40F2E730ADF81B
:103AB00018004720ADF814000020ADF81A00ADF84A
:103AC000160005A91F48FDF74DFB7020ADF8040056
:103AD0000120ADF80600C820ADF80A000020ADF8BE
:103AE0000C000420ADF808000020ADF80E00ADF881
:103AF000120001A91348FDF772FB08211148FDF7D8
:103B0000BDFF01A90F48FDF7ACFB08210D48FDF7EB
:103B1000BEFF01A90B48FDF7F1FB08210948FDF79D
:103B2000C3FF01210748FDF779FF01210548FDF793
:103B300081FE01210348FDF771FE09B000BD0000C0
:103B4000000C0140002C014010B55048006820B91D
:103B50004F488068401C4E4988600120FDF725FAD7
:103B600010BD10B54948001D006820B9484840689C
:103B7000401C474948600220FDF717FA10BD10B5F8
:103B800042481830006820B94148C068401C40498C
:103B9000C8604020FDF709FA10BD08B501210C20CE
:103BA000FDF71AF901210846FDF716F94320ADF893
:103BB000000048208DF8030069463648FCF750FEA7
:103BC0004020ADF8000069463348FCF749FE08BDC7
:103BD0000EB5FFF7E2FF01210846FDF7FDF80021D1
:103BE0000846FCF753FF06210120FCF74FFF012197
:103BF0000020FCF74BFF06210020FCF747FF0120C7
:103C0000019000208DF808000C208DF8090001209B
:103C10008DF80A0001A8FDF751F94020019001A894
:103C2000FDF74CF90220019001A8FDF747F90620A5
:103C30008DF8000001208DF8010003208DF80200AE
:103C400001208DF803006846FCF741FD07208DF840
:103C5000000001208DF8010003208DF802000120F2
:103C60008DF803006846FCF732FD17208DF8000040
:103C700001208DF8010003208DF8020001208DF84D
:103C800003006846FCF723FD0EBD00000001214241
:103C90004C06002000080140000C014030B589B0FE
:103CA00005460C4601210420FDF7A3F80121082058
:103CB000FDF792F84020ADF8140048208DF8170069
:103CC00005A92848FCF7CCFD4FF6FF70ADF80C00B5
:103CD0002320ADF808000020ADF80E00ADF80A0072
:103CE00002A92148FDF73EFA0020ADF81800022095
:103CF000ADF81A000120ADF81C000020ADF81E0040
:103D0000ADF8200006A91848FDF7BFFC1E208DF86D
:103D100004008DF805508DF8064001208DF807004D
:103D200001A8FCF7D4FC012202210F48FDF791FD08
:103D300001210D48FDF772FD09B030BD10B502211B
:103D40000948FEF734F860B10848006820B908480F
:103D50000069401C064908614FF6FD7002491031A8
:103D6000088010BD000C014000080040188121426D
:103D70004C06002038B540F224417148FEF716FB8E
:103D800040B36F48FEF792FA6E48006FC0F5FA70C4
:103D90006D49086000216B486C30FEF7EAF84FF47B
:103DA000FA7068490867012166486C30FEF7E1F84F
:103DB0006A4602216548006800F0E4FC04464CB104
:103DC000009838B14FF0805061490860BFF34F8FC1
:103DD000BFF36F8F38BD10B592B0044601210420A7
:103DE000FCF7FAFF01214804FDF703F8012108461A
:103DF000FCF7E5FF5248FEF719F90420ADF844003E
:103E000003208DF8460018208DF8470011A951486D
:103E1000FCF726FD0820ADF8440004208DF847008B
:103E200011A94C48FCF71CFD26208DF830008DF8B8
:103E3000314000208DF8320001208DF833000CA8AD
:103E4000FCF745FC4FF4E1300D900020ADF8380050
:103E5000ADF83A00ADF83C00ADF840000C20ADF8EC
:103E60003E000DA93648FEF724F9012240F2244114
:103E70003348FEF7B6F9012240213148FEF7D6F962
:103E800001212F48FEF7A1F92E486C30FDF7A4FF61
:103E90002B48001D019030480290002003904FF401
:103EA000FA70049000200590802006900020079072
:103EB000089009904FF480500A9000200B9001A9BF
:103EC00020486C30FEF72AF801211E486C30FEF7BE
:103ED00050F81C488030FDF77FFF1948001D019005
:103EE0001E480290102003904FF4FA7004900020B6
:103EF00005908020069000200790089009904FF4CC
:103F000080500A9000200B9001A90E488030FEF7E7
:103F100005F8012280210A48FEF788F912B010BD89
:103F200010B50446002107488030FEF722F8054806
:103F3000843004600121001FFEF71BF810BD000053
:103F400000440040000002404C000020040000201B
:103F500004ED00E000080140600600205408002045
:103F600008B500BF0520FFF736FF43E02248006890
:103F700000283CD0642001231A46022100901E48EC
:103F8000006800F0D8FA044604F0020020B303F001
:103F900051FF03F0E0FF194800884FF6FF7101EA76
:103FA000400017490880154840884FF6FF7101EA24
:103FB000400013494880114880884FF6FF7101EA9C
:103FC00040000F4988800D48C0884FF6FF7101EA14
:103FD00040000B49C8800DE00020094981F84400E9
:103FE00040F6B830088048808880C88002E00A2007
:103FF00001F0F4FDBAE7000004000020D800002022
:10400000945D002002E00A2001F0E8FDFBE70000DB
:1040100008B5FEF7CBFD0090FFF7DAFD0021032085
:10402000FFF73CFE48E0C821684601F07CFD2349CB
:10403000486804F0B9FC0546214904F087FB0446B2
:10404000204904F083FB204948601C49886804F03B
:10405000ABFC05461A4904F079FB0446194904F003
:1040600075FB194948641549C86804F09DFC05466C
:10407000134904F06BFB0446124904F067FB124934
:10408000C1F884000D49086904F08EFC05460C490E
:1040900004F05CFB04460B4904F058FB0A49C1F8E4
:1040A000C4000020054948608860C860086107486E
:1040B0000068401C05490860B5E700004C06002078
:1040C00000005C43CDCC4C3EE800002050000020B6
:1040D000FFF7D6FC2FE0142001F080FD1648008881
:1040E000801E15490880081D0088801E091D088053
:1040F0001148001F0088801E0F49091F0880081DF5
:104100000088002803DC4FF47A70091D08800A48F3
:10411000001F0088002804DC4FF47A700649091F4C
:1041200008800548001D0088002804DC4FF47A70E0
:104130000149091D0880CEE7382C014008B5FEF77B
:1041400035FD009003F0A0FC89E06421684601F091
:10415000EAFCFFF77DFB03F0B5FC414890F8440012
:10416000012877D13E49486B002104F031FD0AD87F
:104170003B49486B04F0E0FB84B222460121022057
:1041800003F0AEFB0CE03648406B80F0004528465B
:1041900004F0D2FB84B222460021022003F0A0FBEF
:1041A0002F49886B002104F013FD0AD82C49886B35
:1041B00004F0C2FB84B222460121042003F090FBEC
:1041C0000CE02748806B80F00045284604F0B4FBE3
:1041D00084B222460021042003F082FB2049C86BF0
:1041E000002104F0F5FC0AD81D49C86B04F0A4FBBB
:1041F00084B222460121082003F072FB0CE018482B
:10420000C06B80F00045284604F096FB84B222463D
:104210000021082003F064FB1149086C002104F020
:10422000D7FC0AD80E49086C04F086FB84B22246FB
:104230000121102003F054FB0CE00948006C80F0D1
:104240000045284604F078FB84B222460021102065
:1042500003F046FB03480068401C0249086074E70D
:10426000945D0020540000201CB5FEF79FFC0190D7
:10427000FFF7F4F90C2328A200210846FFF7BFF945
:104280000C2327A219460020FFF7B9F90C2328A216
:1042900018210020FFF7B3F90C2328A224210020C5
:1042A000FFF7ADF90C2327A230214020FFF7A7F933
:1042B000FFF72EF82020254908702BE0282101A8BF
:1042C00001F031FC01200C230090204802783421B9
:1042D0002420FFF7C0F80C20032300901B4802782D
:1042E00034215E20FFF741F9FFF712F817480078F4
:1042F000401C16490870084600787E2801DD202001
:1043000008704FF4FA70FEF7A3FC11480068401CD7
:104310000F490860D2E7000058584C404849540003
:104320004F6D6E6920576865656C204361720000AF
:104330002D323031392F352F312D00004153434973
:10434000493A0000434F44453A0000006000002015
:104350005C00002002E0C82001F040FCFBE7000008
:1043600010B51C2003F0CDF9044624B100202060D4
:10437000201D00F01EFA204610BD2DE9FE4F074615
:104380008846002001903C4600902FB940F21D2243
:10439000F0A1F7A003F0A4FE08F07F4008B90120C7
:1043A00000E0002028B940F21E22EAA1F0A003F0AC
:1043B00097FE04F1040909F10800029001F0ADFB39
:1043C000D9F80C60206840EA0800206026E0D6F8A2
:1043D00004B035680020009005F07F4A25F07F4545
:1043E0000AF0806028B92068284040B10120009080
:1043F00005E020682840A84201D1012000900098E3
:1044000058B10AF0807010B10198284301902068DB
:1044100040F00071304602F07BF85E46029886421A
:10442000D5D1206801998843206001F0CBFA20683B
:10443000BDE8FE8F2DE9F84F8346884614461F4697
:104440005D460020009004F07F4008B9012000E0A4
:10445000002020B9D722BFA1C5A003F041FE0CB1B6
:10446000012000E0002020B9D822BAA1C0A003F0AA
:1044700037FE02F021F900B90FB9012000E0002059
:1044800020B9DB22B3A1BAA003F02AFE01F045FB5C
:10449000D5F8009041465846FFF76FFF49EA0800FB
:1044A0002040A04206D149EA08062868A0432860B7
:1044B000002709E03FB144F0A0613A46281D01F011
:1044C000A3FF002600E02E6801F07CFA824607B3C5
:1044D000BAF1000F07D14FF08050A9490860BFF32F
:1044E0004F8FBFF36F8F02F018FA064606F0007088
:1044F00068B902F0FAFF2E6806EA0400A04202D171
:104500002868A043286003F013F80120009026F0EB
:104510007F463046BDE8F88F10B50346002022B92B
:1045200003EA010434B1012004E003EA01048C42EF
:1045300000D1012010BD2DE9FF4F83B081460D460B
:104540001746DDF840804C464FF0000A00200190ED
:10455000B9F1000F05D140F24D127EA184A003F005
:10456000BFFD05F07F4008B9012000E0002028B918
:104570004FF4A77277A17EA003F0B2FD0DB1012028
:1045800000E0002028B940F24F1272A178A003F099
:10459000A7FD02F091F810B9B8F1000F01D1012088
:1045A00000E0002028B94FF4A9726AA170A003F0BE
:1045B00097FD01F0B2FA206800902946069A00980B
:1045C000FFF7AAFF0290029838B1009E4FF0000852
:1045D000B7B12068A843206012E0B8F1000F01D104
:1045E000009E0DE00FB14AF0807A069808B14AF0BB
:1045F000806A45EA0A014246201D01F005FF0026B7
:1046000001F0E0F98346B8F1000F23D0BBF1000FB1
:1046100007D14FF080505A490860BFF34F8FBFF366
:104620006F8F02F07AF9064606F0007080B902F04A
:104630005CFF266829463046069AFFF76DFF18B1E1
:1046400017B12068A843206002F072FF002001909B
:1046500026F07F46304607B0BDE8F08F2DE9F041E7
:1046600005460E462C462DB940F2DF1239A140A076
:1046700003F036FD06F07F4008B9012000E000207D
:1046800028B94FF4F07233A139A003F029FD02F0EC
:104690002CFF27682068B043206002F049FF3846AD
:1046A000BDE8F08170B504460D4629462046FFF767
:1046B000D5FF70BD70B504460D4600232A4621463D
:1046C000AFF21F0002F046FE0646304670BD70B5E0
:1046D00001460B4600BF5025EFF3118085F311888A
:1046E000BFF34F8FBFF36F8F00BF02461C681046A9
:1046F00080F3118800BF204670BD70B505462E4678
:10470000341D01F00AFA13E004F10800E168814267
:1047100001D0012000E0002028B940F27D220DA147
:1047200013A003F0DDFC4FF00071E06801F0F0FE33
:1047300020680028E8D1304603F066F801F042F91D
:1047400070BD70B504460D4629462046FFF715FE9C
:1047500070BD00002E2E5C4672656552544F535C4E
:104760006576656E745F67726F7570732E63000097
:104770004572726F723A25732C25640D0A00000091
:1047800004ED00E02DE9F04104460D46164633469F
:104790002A462146AFF2550002F0DCFD07463846B6
:1047A000BDE8F08101460A4609B9002000E09069A1
:1047B000704700F1080141604FF0FF31816000F166
:1047C0000801C160016100210160704700210161A1
:1047D000704742684A6093688B6093685960916043
:1047E000086103685B1C0360704710B502460B68E4
:1047F0005C1C0CB9106907E002F1080000E0406899
:10480000446824689C42FAD944684C604C68A160B2
:10481000886041600A611468641C146010BD014620
:104820000A69D1E901309860D1E901035860506804
:10483000884201D188685060002008611068401EDD
:10484000106010687047000070B505460E462C4693
:104850002CB940F21B12FAA1FEA003F041FC02F0B9
:1048600044FED4E90F12206801FB020060600020C2
:10487000A0632068A060E06B401E226C216800FBF2
:104880000210E060FF2084F8440084F845009EB9DF
:10489000206908B9012000E00020A8B904F1100047
:1048A00001F0F9FD80B14FF08050EE490860BFF390
:1048B0004F8FBFF36F8F07E004F11000FFF779FF10
:1048C00004F12400FFF775FF02F032FE012070BDF5
:1048D0002DE9F04106460D4617469846069C0DB94F
:1048E000246000E02760E663256401212046FFF78D
:1048F000ABFF84F850800020A064BDE8F0812DE972
:10490000F84305460E4690460DB1012000E0002018
:1049100028B94FF4C472CAA1CEA003F0E1FB0EB9CE
:10492000002701E005FB06F707F1540002F0E9FE5D
:10493000044644B104F1540943464A4631462846E8
:104940000094FFF7C5FF2046BDE8F8832DE9F0414C
:1049500004460F4615464FF00008A66B206C40B980
:10496000206860BB606801F005FF80460020606041
:1049700025E07DB93946226CA06803F0D6FC216C95
:10498000A0680844A060D4E90110884217D32068C9
:10499000A06014E03946226CE06803F0C6FC216C8C
:1049A000E068401AE0602168E068884203D2216C28
:1049B0006068401AE060022D01D106B1761E701CBD
:1049C000A0634046BDE8F0812DE9F3410D46009813
:1049D000846C00272CB940F6CE1299A19DA003F05B
:1049E0007FFBA06BE16B884201D2012000E0002038
:1049F00028B940F6CF1292A196A003F071FBA06BEC
:104A0000E16B88421BD294F945602A4669462046EC
:104A1000FFF79CFF0746701C60B9606A08B9012067
:104A200000E0002050B904F1240001F034FD28B169
:104A3000012703E0701C40B284F8450000BF3846EF
:104A4000BDE8FC8170B5044602F04FFD94F9455075
:104A50001AE0A06C38B100212046FFF7B5FF88B1FD
:104A600001F0EDFD0EE0606A08B9012000E00020D1
:104A700038B904F1240001F00EFD18B101F0DFFD9A
:104A800000E003E0681E45B2002DE2DC00BFFF201D
:104A900084F8450002F04CFD02F027FD94F94450E3
:104AA00010E0206908B9012000E0002048B904F1B5
:104AB000100001F0F0FC08B101F0C1FD681E45B224
:104AC00000E001E0002DECDC00BFFF2084F8440092
:104AD00002F02EFD70BD70B5054602F006FDA86B14
:104AE000E96B884201D1012400E0002402F020FD9E
:104AF000204670BD2DE9FF4383B0064688461D461B
:104B00004FF0000934462CB940F2D9224CA151A0F3
:104B100003F0E6FAB8F1000F01D1206C08B90120CA
:104B200000E0002028B940F2DA2245A149A003F0B4
:104B3000D7FA022D02D1E06B012801D1012000E05B
:104B4000002028B940F2DB223DA142A003F0C8FAC0
:104B500001F0B2FD08B9059808B9012000E0002075
:104B600028B940F2DE2236A13AA003F0B9FA00BF1C
:104B700002F0BBFCA06BE16B884201D3022D38D15F
:104B80002A4641462046FFF7E1FE0746A06C68B181
:104B900029462046FFF718FF28B34FF080503149CF
:104BA0000860BFF34F8FBFF36F8F1CE0606A08B9D6
:104BB000012000E0002068B904F1240001F06BFC42
:104BC00088B14FF0805027490860BFF34F8FBFF383
:104BD0006F8F08E03FB14FF0805022490860BFF36B
:104BE0004F8FBFF36F8F02F0A3FC012007B0BDE829
:104BF000F083059818B902F09BFC0020F6E7B9F1A4
:104C0000000F04D101A801F0CAFC4FF0010902F025
:104C10008FFC00F082FF02F068FC94F94400401C15
:104C200010B9002084F8440094F94500401C10B9E4
:104C3000002084F8450002F07BFC05A901A813E0E0
:104C40002E2E5C4672656552544F535C71756575C6
:104C5000652E63004572726F723A25732C25640DC0
:104C60000A00000004ED00E001F0ABFCF8B92046BA
:104C7000FFF731FFA8B104F11000059901F0ADFB79
:104C80002046FFF7DFFE00F09DFE00287FF470AFA6
:104C90004FF08050FA490860BFF34F8FBFF36F8F1A
:104CA00066E72046FFF7CEFE00F08CFE60E7204668
:104CB000FFF7C8FE00F086FE002097E710B5044617
:104CC0004CB1002060602060E06000231A46194665
:104CD0002046FFF70FFF10BD2DE9F04104460126E5
:104CE0000027224600210120FFF709FE054628463D
:104CF000FFF7E4FF2846BDE8F08170B5064634466C
:104D00003CB940F24122AFF2C801AFF2B80003F063
:104D1000E7F901F0CEFC616888420CD1E068401EE2
:104D2000E060E06828B900231A4619462046FFF7DC
:104D3000E1FE012500E00025284670BD70B505465E
:104D400002F0D3FBA86B08B9012400E0002402F0B4
:104D5000EFFB204670BD70B504460D46206C70B167
:104D6000216CE0680844E0606168E068884201D333
:104D70002068E0602846226CE16803F0D6FA70BD36
:104D80002DE9FF4782B005460E461F464FF0000A48
:104D90002C463CB940F2DC42AFF25C11AFF24C1051
:104DA00003F09EF90EB9206C08B9012000E0002044
:104DB00038B940F2DD42AFF27811AFF2681003F07B
:104DC0008FF901F079FC08B9049808B9012000E0D6
:104DD000002038B94FF49C62AFF29C11AFF28C10F6
:104DE00003F07EF900BF02F080FBD4F83890B9F1EF
:104DF000000F3DD0D4F80C8031462046FFF7ABFFC2
:104E0000DFB9A9F10100A063206810B901F091FD9C
:104E10006060206908B9012000E0002010BB04F1A7
:104E2000100001F038FBE8B14FF080509449086061
:104E3000BFF34F8FBFF36F8F14E0C4F80C80606A2C
:104E400008B9012000E0002060B904F1240001F05D
:104E500022FB38B14FF0805089490860BFF34F8F73
:104E6000BFF36F8F02F064FB012006B0BDE8F0874E
:104E7000049818B902F05CFB0020F6E7BAF1000FC5
:104E800004D1684601F08BFB4FF0010A02F050FBA1
:104E900000F043FE02F029FB94F94400401C10B9D5
:104EA000002084F8440094F94500401C10B900200B
:104EB00084F8450002F03CFB04A9684601F081FB40
:104EC00040BB2046FFF73AFFF0B1206830B902F04E
:104ED0000CFB606801F0FCFB02F02AFB04F12400EB
:104EE000049901F07AFA2046FFF7ACFD00F06AFD64
:104EF00000287FF478AF4FF0805061490860BFF31D
:104F00004F8FBFF36F8F6EE72046FFF79BFD00F0DA
:104F100059FD68E72046FFF795FD00F053FD204658
:104F2000FFF70CFF0028EED000209EE72DE9F041AE
:104F300006460F4634463CB94FF41E72AFF20031BC
:104F4000AFF2F02003F0CCF801F0B3FB61688842C7
:104F500004D1E068401CE06001250AE000233A46E5
:104F600019462046FFF70CFF054615B1E068401CC6
:104F7000E0602846BDE8F08170B505460E460DB1EB
:104F8000012000E0002038B940F2BD22AFF25031DC
:104F9000AFF2403003F0A4F8AE4201D8012000E0A7
:104FA000002038B940F2BE22AFF26C31AFF25C3073
:104FB00003F096F8022200212846FFF7A0FC0446E1
:104FC00004B1A663204670BD2DE9F05F80468A4695
:104FD00015461E4644463CB940F29F32AFF2A0311E
:104FE000AFF2903003F07CF8BAF1000F01D1206CE1
:104FF00008B9012000E0002038B94FF46872AFF220
:10500000C031AFF2B03003F06BF8022E02D1E06B8A
:10501000012801D1012000E0002038B940F2A1327E
:10502000AFF2E431AFF2D43003F05AF802F0B0FA44
:1050300000BF5021EFF3118081F31188BFF34F8F30
:10504000BFF36F8F00BF0746A06BE16B884201D3AF
:10505000022E2ED194F945B0324651462046FFF734
:1050600075FC0BF10100E0B9A06C58B13146204647
:10507000FFF7AAFCD0B1CDB10120286016E00000F6
:1050800004ED00E0606A08B9012000E0002068B982
:1050900004F1240001F0FFF940B13DB10120286086
:1050A00004E00BF1010040B284F845004FF0010923
:1050B00001E04FF0000900BF87F3118800BF4846A8
:1050C000BDE8F09F2DE9F04707460D463C463CB948
:1050D00040F23C42AFF29841AFF2884003F000F852
:1050E000206C08B9012000E0002038B94FF4886234
:1050F000AFF2B441AFF2A44002F0F2FF206808B969
:10510000606808B9012000E0002038B940F245424B
:10511000AFF2D441AFF2C44002F0E2FF02F038FA3D
:1051200000BF5021EFF3118081F31188BFF34F8F3F
:10513000BFF36F8F00BF0646D4F83890E06B484548
:1051400029D994F945A009F10100A0630AF10100F1
:10515000C8B9A06C40B100212046FFF735FCB8B1BA
:10516000B5B10120286013E0606A08B9012000E0B1
:10517000002068B904F1240001F08DF940B13DB17F
:105180000120286004E00AF1010040B284F84500E3
:105190004FF0010801E04FF0000800BF86F31188CE
:1051A00000BF4046BDE8F0872DE9F05F064689461E
:1051B000174634463CB94FF4B462AFF27C51AFF2BB
:1051C0006C5002F08DFFB9F1000F01D1206C08B9CD
:1051D000012000E0002038B940F2A152AFF2A05106
:1051E000AFF2905002F07CFF02F0D2F900BF5021E4
:1051F000EFF3118081F31188BFF34F8FBFF36F8FEF
:1052000000BF0546D4F838A0BAF1000F22D094F9B7
:1052100044B049462046FFF79EFDAAF10100A06375
:105220000BF1010070B9206908B9012000E00020ED
:1052300068B904F1100001F02EF940B13FB101202E
:10524000386004E00BF1010040B284F844004FF0F4
:10525000010801E04FF0000800BF85F3118800BF8E
:105260004046BDE8F09F2DE9F047064688463446A3
:105270003CB940F2FC52AFF23861AFF2286002F064
:105280002FFFB8F1000F01D1206C08B9012000E018
:10529000002038B940F2FD52AFF25C61AFF24C60D1
:1052A00002F01EFF206C08B1012000E0002038B998
:1052B00040F2FE52AFF27861AFF2686002F010FF88
:1052C00002F066F900BF5021EFF3118081F31188DD
:1052D000BFF34F8FBFF36F8F00BF0546A06B48B180
:1052E000D4F80C9041462046FFF735FDC4F80C90E9
:1052F000012700E0002700BF85F3118800BF384672
:10530000BDE8F08770B504463CB940F22F62AFF2B9
:10531000D061AFF2C06002F0E3FE02F0E6F8A56BE8
:1053200002F006F9284670BD70B5044625463DB921
:1053300040F24162AFF2F861AFF2E86002F0D0FEF5
:1053400002F0D3F8D5E90E10461A02F0F1F8304613
:1053500070BD70B504463CB940F25162AFF22071A5
:10536000AFF2107002F0BCFEA56B284670BD01467E
:1053700000200EE0764A02EBC00252688A4207D152
:105380000022734B43F8302003EBC0035A6002E065
:10539000401C0828EED300BF704770B50446254670
:1053A0003DB940F25D62AFF26871AFF2587002F041
:1053B00097FE2846FFF7DBFF284602F025FA70BD6E
:1053C0000146C86C7047C1647047014691F85000AF
:1053D000704770B505463DB940F29372AFF2A071C7
:1053E000AFF2907002F07CFEA86B08B9012400E0D7
:1053F0000024204670BD70B504463CB940F2BA7234
:10540000AFF2C471AFF2B47002F06AFEA06BE16B50
:10541000884201D1012500E00025284670BD0246E2
:1054200000200BE04A4B53F8303033B9484B43F877
:10543000301003EBC0035A6002E0401C0828F1D38F
:1054400000BF70470246002000210AE0404B03EBFA
:10545000C1035B68934203D13D4B53F8310002E036
:10546000491C0829F2D300BF70472DE9F0410546D9
:105470000E4617462C4602F038F894F94400401CBA
:1054800010B9002084F8440094F94500401C10B97C
:10549000002084F8450002F04BF8A06B28B93A468A
:1054A000314604F1240000F0DBFF2046FFF7CAFA82
:1054B000BDE8F08170B50446002204212046FFF7C4
:1054C0001EFA0546284670BD70B504460E4602F029
:1054D0000CF8A06C08B1002505E0A06B08B1002510
:1054E00001E0A664012502F023F8284670BD2DE9ED
:1054F000F04105460F462E46B06CB84201D000245C
:105500000AE0B06B08B1002406E001F0EEFF0020D5
:10551000B06402F00DF801242046BDE8F08138B5F2
:1055200005460C4600200090002322466946284686
:10553000FFF726FC009838BD38B5044600200090DF
:10554000002269462046FFF72FFE009838BD000074
:10555000480A002010B5002407E004EB8401FB4A50
:1055600002EB8100FFF725F9641C202CF5D3F848E5
:10557000FFF71FF9F748FFF71CF9F748FFF719F98C
:10558000F648FFF716F9F648FFF713F9F048F54922
:105590000860F048F449086010BD10B5044601F0F9
:1055A000A4FFF2480068401CF0490860F048006819
:1055B00040B9EF4804600846006801280DD1FFF7A4
:1055C000C9FF0AE0EB48006838B9E9480068C06ADA
:1055D000E16A884201D8E6480460E7480068401C58
:1055E000E549086008460068A06494F82C10012082
:1055F0008840E24909680843E0490860E16A01EB34
:105600008101D24A02EB8100211DFFF7E2F801F08F
:105610008FFFD848006868B1D5480068C06AE16A61
:10562000884207D24FF08050D5490860BFF34F8FB2
:10563000BFF36F8F10BD2DE9F05F82460F46904695
:105640009B460A9E0C9C4FEA8801A522206B02F023
:10565000B1FEA8F10100216B01EB800929F00709D7
:1056600009F0070008B9012000E0002028B940F245
:105670002B32C4A1C8A002F033FD002507E0795DFC
:1056800004F134004155785D00B902E06D1C142D21
:10569000F5D300BF002147200155202E00D31F263F
:1056A000E662266500206065201DFFF78FF804F193
:1056B0001800FFF78BF82461C6F12000A061646236
:1056C0000020A06584F85C005A465146484601F027
:1056D00099FE20600B9808B10B980460BDE8F09F1C
:1056E0002DE9FF4F85B0804689461746DDE912ABAC
:1056F000B80002F006F8064656B1602002F001F844
:1057000004460CB1266304E0304602F07DF800E068
:1057100000247CB10020CDE900ABCDE902403A463F
:1057200049464046089BFFF786FF2046FFF735FFB6
:10573000012501E04FF0FF35284609B0BDE8F08FA4
:1057400088490968096809B9012100E0002121B1EF
:105750004FF0FF31944A116006E082490968C96838
:10576000C868914A41681160704710B50446206BC3
:1057700002F04AF8204602F047F810BD70B5054621
:1057800001F0B3FE15B97A48006800E028460446E7
:10579000201DFFF744F878B9E06A00EB80006B4900
:1057A00051F8200040B994F82C100120884073492A
:1057B0000968814371480160A06A18B104F11800BA
:1057C000FFF72DF86C480068401C6B49086068487A
:1057D0000068844209D1211D6048FEF7FAFF734832
:1057E0000068401C7149086009E060480068401E7C
:1057F0005E4908602046FFF7B8FFFFF7A1FF01F000
:1058000097FE5C480068C0B159480068844214D1D2
:105810006748006808B9012000E0002028B940F27C
:10582000654258A15CA002F05BFC4FF080505449E7
:105830000860BFF34F8FBFF36F8F70BD2DE9F0414C
:105840004FF000085A480068002872D15948006893
:10585000451C58480560EDB942480068006808B921
:10586000012000E0002028B940F6D91245A14AA045
:1058700002F036FC3B4807683B480068394908603D
:10588000394807604C480068401C4B490860FFF7E6
:1058900057FF00BF4448006885423CD300BF3148F1
:1058A0000068006808B9012000E0002020B14FF036
:1058B000FF303D4908602DE02A480068C068C46890
:1058C0006668B54202D23848066023E0201DFEF724
:1058D000A6FFA06A18B104F11800FEF7A0FF94F823
:1058E0002C10012088402549096808432349086095
:1058F000E16A01EB8101154A02EB8100211DFEF7EF
:1059000068FF1B49E06A0968C96A8842C7D34FF03B
:105910000108C4E700BF16480068C06A00EB8000B9
:105920000A4951F82000012801D94FF0010805E08B
:10593000FFE722480068401C2049086020480068B2
:1059400008B14FF001084046BDE8F081880A002008
:10595000080D00201C0D0020300D0020440D0020FB
:10596000580D0020680000206C000020740000200A
:105970006400002080000020900000207C000020B7
:1059800004ED00E02E2E5C4672656552544F535C68
:105990007461736B732E63004572726F723A257374
:1059A0002C25640D0A0000009400002070000020E7
:1059B0009C000020780000208C0000208400002043
:1059C0008800002070B500240026FE48006838B921
:1059D0004FF4FD62AFF25401AFF2440002F080FBDD
:1059E00001F083FDF7480068401EF649086008464C
:1059F000006800284FD1F448006800284BD024E00C
:105A0000F248C068C46804F11800FEF708FF201DC2
:105A1000FEF705FF94F82C1001208840EC49096836
:105A20000843EB490860E16A01EB8101E94A02EBB6
:105A30008100211DFEF7CDFEE749E06A0968C96AC9
:105A4000884202D30120E5490860E048006808B9AF
:105A5000012000E000200028D2D00CB1FFF770FE3A
:105A6000DF48056865B100BFFFF7E8FE10B101200F
:105A7000DA4908606D1E002DF6D10020D849086073
:105A8000D648006838B101263007D6490860BFF310
:105A90004F8FBFF36F8F01F04BFD304670BD2DE986
:105AA000F04105460E46D0480768CB480068001D07
:105AB000FEF7B5FE50B9C848006890F82C100120D8
:105AC0008840C34909688143C1480160681C38B9EE
:105AD00036B1C1480168091DC448FEF77AFE1AE0D4
